:100000000C9434000C9449000C9449000C94490061
:100010000C9449000C9449000C9449000C9449003C
:100020000C9449000C9449000C9449000C9449002C
:100030000C9449000C9449000C9449000C9449001C
:100040000C9449000C9449000C9449000C9449000C
:100050000C9449000C9449000C9449000C944900FC
:100060000C9449000C94490011241FBECFEFD8E036
:10007000DEBFCDBF11E0A0E0B1E0E6E8F1E002C0F4
:1000800005900D92A830B107D9F70E944B000C944F
:10009000C1000C9400000F931F93DF93CF93CDB753
:1000A000DEB728970FB6F894DEBF0FBECDBF8FEF37
:1000B00084B987B98AB915B818B81BB8DE0111968A
:1000C000E0E0F1E088E001900D928150E1F720E05E
:1000D00030E08E010F5F1F4F48EB50E0DE011F97AD
:1000E000BE016750704046C028303105ACF4F801BD
:1000F000E20FF31F808185B988EE93E0FA01319712
:10010000F1F70197D9F715B888EE93E0FA01319726
:10011000F1F70197D9F72CC020313105ACF4FB0180
:10012000E20FF31F808188B988EE93E0FA013197DE
:10013000F1F70197D9F718B888EE93E0FA013197F3
:10014000F1F70197D9F714C0FD01E20FF31F808189
:100150008BB988EE93E0FA013197F1F70197D9F75F
:100160001BB888EE93E0FA013197F1F70197D9F7C0
:100170002F5F3F4F283131050CF4B6CF20E030E03F
:06018000B6CFF894FFCF9A
:08018600010204081020408072
:00000001FF
